{
  "contractName": "retail",
  "abi": [
    {
      "inputs": [
        {
          "internalType": "uint256",
          "name": "",
          "type": "uint256"
        }
      ],
      "name": "item",
      "outputs": [
        {
          "internalType": "string",
          "name": "name",
          "type": "string"
        },
        {
          "internalType": "uint256",
          "name": "item_no",
          "type": "uint256"
        },
        {
          "internalType": "uint256",
          "name": "price",
          "type": "uint256"
        },
        {
          "internalType": "uint256",
          "name": "quantity",
          "type": "uint256"
        },
        {
          "internalType": "address",
          "name": "wallet",
          "type": "address"
        }
      ],
      "stateMutability": "view",
      "type": "function"
    },
    {
      "inputs": [],
      "name": "items",
      "outputs": [
        {
          "internalType": "uint256",
          "name": "",
          "type": "uint256"
        }
      ],
      "stateMutability": "view",
      "type": "function"
    },
    {
      "inputs": [
        {
          "internalType": "address",
          "name": "",
          "type": "address"
        },
        {
          "internalType": "uint256",
          "name": "",
          "type": "uint256"
        }
      ],
      "name": "user",
      "outputs": [
        {
          "internalType": "string",
          "name": "name",
          "type": "string"
        },
        {
          "internalType": "uint256",
          "name": "item_no",
          "type": "uint256"
        },
        {
          "internalType": "uint256",
          "name": "price",
          "type": "uint256"
        },
        {
          "internalType": "uint256",
          "name": "quantity",
          "type": "uint256"
        }
      ],
      "stateMutability": "view",
      "type": "function"
    },
    {
      "inputs": [
        {
          "internalType": "string",
          "name": "_name",
          "type": "string"
        },
        {
          "internalType": "uint256",
          "name": "itemnum",
          "type": "uint256"
        },
        {
          "internalType": "uint256",
          "name": "_price",
          "type": "uint256"
        },
        {
          "internalType": "uint256",
          "name": "_quant",
          "type": "uint256"
        },
        {
          "internalType": "address",
          "name": "_add",
          "type": "address"
        }
      ],
      "name": "record_item",
      "outputs": [],
      "stateMutability": "nonpayable",
      "type": "function"
    },
    {
      "inputs": [
        {
          "internalType": "uint256",
          "name": "orderno",
          "type": "uint256"
        },
        {
          "internalType": "string",
          "name": "_name",
          "type": "string"
        },
        {
          "internalType": "uint256",
          "name": "itemnum",
          "type": "uint256"
        },
        {
          "internalType": "uint256",
          "name": "_price",
          "type": "uint256"
        },
        {
          "internalType": "uint256",
          "name": "_quant",
          "type": "uint256"
        },
        {
          "internalType": "address",
          "name": "_add",
          "type": "address"
        }
      ],
      "name": "check",
      "outputs": [
        {
          "internalType": "string",
          "name": "",
          "type": "string"
        }
      ],
      "stateMutability": "view",
      "type": "function"
    },
    {
      "inputs": [
        {
          "internalType": "address",
          "name": "_add",
          "type": "address"
        }
      ],
      "name": "get_orders",
      "outputs": [
        {
          "components": [
            {
              "internalType": "string",
              "name": "name",
              "type": "string"
            },
            {
              "internalType": "uint256",
              "name": "item_no",
              "type": "uint256"
            },
            {
              "internalType": "uint256",
              "name": "price",
              "type": "uint256"
            },
            {
              "internalType": "uint256",
              "name": "quantity",
              "type": "uint256"
            }
          ],
          "internalType": "struct retail.User[]",
          "name": "",
          "type": "tuple[]"
        }
      ],
      "stateMutability": "view",
      "type": "function"
    }
  ],
  "bytecode": "0x608060405233600160006101000a81548173ffffffffffffffffffffffffffffffffffffffff021916908373ffffffffffffffffffffffffffffffffffffffff16021790555034801561005157600080fd5b506117a5806100616000396000f3fe608060405234801561001057600080fd5b50600436106100625760003560e01c806314feaa9d14610067578063243847f21461009a5780635cb3f0f8146100ca578063898e6219146100fa578063bf38efce1461012e578063c06fad061461014a575b600080fd5b610081600480360381019061007c91906109cf565b610168565b6040516100919493929190610aae565b60405180910390f35b6100b460048036038101906100af9190610afa565b61023d565b6040516100c19190610ca5565b60405180910390f35b6100e460048036038101906100df9190610dfc565b61038b565b6040516100f19190610ea5565b60405180910390f35b610114600480360381019061010f9190610ec7565b610691565b604051610125959493929190610f03565b60405180910390f35b61014860048036038101906101439190610f5d565b61076f565b005b610152610921565b60405161015f9190610ff4565b60405180910390f35b6003602052816000526040600020818154811061018457600080fd5b9060005260206000209060040201600091509150508060000180546101a89061103e565b80601f01602080910402602001604051908101604052809291908181526020018280546101d49061103e565b80156102215780601f106101f657610100808354040283529160200191610221565b820191906000526020600020905b81548152906001019060200180831161020457829003601f168201915b5050505050908060010154908060020154908060030154905084565b6060600360008373ffffffffffffffffffffffffffffffffffffffff1673ffffffffffffffffffffffffffffffffffffffff168152602001908152602001600020805480602002602001604051908101604052809291908181526020016000905b8282101561038057838290600052602060002090600402016040518060800160405290816000820180546102d19061103e565b80601f01602080910402602001604051908101604052809291908181526020018280546102fd9061103e565b801561034a5780601f1061031f5761010080835404028352916020019161034a565b820191906000526020600020905b81548152906001019060200180831161032d57829003601f168201915b5050505050815260200160018201548152602001600282015481526020016003820154815250508152602001906001019061029e565b505050509050919050565b60603373ffffffffffffffffffffffffffffffffffffffff16600160009054906101000a900473ffffffffffffffffffffffffffffffffffffffff1673ffffffffffffffffffffffffffffffffffffffff161461041d576040517f08c379a0000000000000000000000000000000000000000000000000000000008152600401610414906110e1565b60405180910390fd5b8173ffffffffffffffffffffffffffffffffffffffff166002600089815260200190815260200160002060040160009054906101000a900473ffffffffffffffffffffffffffffffffffffffff1673ffffffffffffffffffffffffffffffffffffffff16146104c1576040517f08c379a00000000000000000000000000000000000000000000000000000000081526004016104b89061114d565b60405180910390fd5b856040516020016104d291906111a9565b604051602081830303815290604052805190602001206002600089815260200190815260200160002060000160405160200161050e9190611258565b6040516020818303038152906040528051906020012014610564576040517f08c379a000000000000000000000000000000000000000000000000000000000815260040161055b906112bb565b60405180910390fd5b846002600089815260200190815260200160002060010154146105bc576040517f08c379a00000000000000000000000000000000000000000000000000000000081526004016105b390611327565b60405180910390fd5b83600260008981526020019081526020016000206002015414610614576040517f08c379a000000000000000000000000000000000000000000000000000000000815260040161060b906113b9565b60405180910390fd5b8260026000898152602001908152602001600020600301541461066c576040517f08c379a00000000000000000000000000000000000000000000000000000000081526004016106639061144b565b60405180910390fd5b60405180606001604052806024815260200161174c6024913990509695505050505050565b60026020528060005260406000206000915090508060000180546106b49061103e565b80601f01602080910402602001604051908101604052809291908181526020018280546106e09061103e565b801561072d5780601f106107025761010080835404028352916020019161072d565b820191906000526020600020905b81548152906001019060200180831161071057829003601f168201915b5050505050908060010154908060020154908060030154908060040160009054906101000a900473ffffffffffffffffffffffffffffffffffffffff16905085565b6040518060a001604052808681526020018581526020018481526020018381526020018273ffffffffffffffffffffffffffffffffffffffff16815250600260008054815260200190815260200160002060008201518160000190816107d59190611602565b5060208201518160010155604082015181600201556060820151816003015560808201518160040160006101000a81548173ffffffffffffffffffffffffffffffffffffffff021916908373ffffffffffffffffffffffffffffffffffffffff16021790555090505060006040518060800160405280878152602001868152602001858152602001848152509050600360008373ffffffffffffffffffffffffffffffffffffffff1673ffffffffffffffffffffffffffffffffffffffff16815260200190815260200160002081908060018154018082558091505060019003906000526020600020906004020160009091909190915060008201518160000190816108e19190611602565b50602082015181600101556040820151816002015560608201518160030155505060008081548092919061091490611703565b9190505550505050505050565b60005481565b6000604051905090565b600080fd5b600080fd5b600073ffffffffffffffffffffffffffffffffffffffff82169050919050565b60006109668261093b565b9050919050565b6109768161095b565b811461098157600080fd5b50565b6000813590506109938161096d565b92915050565b6000819050919050565b6109ac81610999565b81146109b757600080fd5b50565b6000813590506109c9816109a3565b92915050565b600080604083850312156109e6576109e5610931565b5b60006109f485828601610984565b9250506020610a05858286016109ba565b9150509250929050565b600081519050919050565b600082825260208201905092915050565b60005b83811015610a49578082015181840152602081019050610a2e565b60008484015250505050565b6000601f19601f8301169050919050565b6000610a7182610a0f565b610a7b8185610a1a565b9350610a8b818560208601610a2b565b610a9481610a55565b840191505092915050565b610aa881610999565b82525050565b60006080820190508181036000830152610ac88187610a66565b9050610ad76020830186610a9f565b610ae46040830185610a9f565b610af16060830184610a9f565b95945050505050565b600060208284031215610b1057610b0f610931565b5b6000610b1e84828501610984565b91505092915050565b600081519050919050565b600082825260208201905092915050565b6000819050602082019050919050565b600082825260208201905092915050565b6000610b6f82610a0f565b610b798185610b53565b9350610b89818560208601610a2b565b610b9281610a55565b840191505092915050565b610ba681610999565b82525050565b60006080830160008301518482036000860152610bc98282610b64565b9150506020830151610bde6020860182610b9d565b506040830151610bf16040860182610b9d565b506060830151610c046060860182610b9d565b508091505092915050565b6000610c1b8383610bac565b905092915050565b6000602082019050919050565b6000610c3b82610b27565b610c458185610b32565b935083602082028501610c5785610b43565b8060005b85811015610c935784840389528151610c748582610c0f565b9450610c7f83610c23565b925060208a01995050600181019050610c5b565b50829750879550505050505092915050565b60006020820190508181036000830152610cbf8184610c30565b905092915050565b600080fd5b600080fd5b7f4e487b7100000000000000000000000000000000000000000000000000000000600052604160045260246000fd5b610d0982610a55565b810181811067ffffffffffffffff82111715610d2857610d27610cd1565b5b80604052505050565b6000610d3b610927565b9050610d478282610d00565b919050565b600067ffffffffffffffff821115610d6757610d66610cd1565b5b610d7082610a55565b9050602081019050919050565b82818337600083830152505050565b6000610d9f610d9a84610d4c565b610d31565b905082815260208101848484011115610dbb57610dba610ccc565b5b610dc6848285610d7d565b509392505050565b600082601f830112610de357610de2610cc7565b5b8135610df3848260208601610d8c565b91505092915050565b60008060008060008060c08789031215610e1957610e18610931565b5b6000610e2789828a016109ba565b965050602087013567ffffffffffffffff811115610e4857610e47610936565b5b610e5489828a01610dce565b9550506040610e6589828a016109ba565b9450506060610e7689828a016109ba565b9350506080610e8789828a016109ba565b92505060a0610e9889828a01610984565b9150509295509295509295565b60006020820190508181036000830152610ebf8184610a66565b905092915050565b600060208284031215610edd57610edc610931565b5b6000610eeb848285016109ba565b91505092915050565b610efd8161095b565b82525050565b600060a0820190508181036000830152610f1d8188610a66565b9050610f2c6020830187610a9f565b610f396040830186610a9f565b610f466060830185610a9f565b610f536080830184610ef4565b9695505050505050565b600080600080600060a08688031215610f7957610f78610931565b5b600086013567ffffffffffffffff811115610f9757610f96610936565b5b610fa388828901610dce565b9550506020610fb4888289016109ba565b9450506040610fc5888289016109ba565b9350506060610fd6888289016109ba565b9250506080610fe788828901610984565b9150509295509295909350565b60006020820190506110096000830184610a9f565b92915050565b7f4e487b7100000000000000000000000000000000000000000000000000000000600052602260045260246000fd5b6000600282049050600182168061105657607f821691505b6020821081036110695761106861100f565b5b50919050565b7f6974656d73206d6179626520636f72727570746564206265636175736520736560008201527f6e646572206973206e6f742073616d6521000000000000000000000000000000602082015250565b60006110cb603183610a1a565b91506110d68261106f565b604082019050919050565b600060208201905081810360008301526110fa816110be565b9050919050565b7f5468652061646472657373206f66207265636965766572206973206c6f737421600082015250565b6000611137602083610a1a565b915061114282611101565b602082019050919050565b600060208201905081810360008301526111668161112a565b9050919050565b600081905092915050565b600061118382610a0f565b61118d818561116d565b935061119d818560208601610a2b565b80840191505092915050565b60006111b58284611178565b915081905092915050565b60008190508160005260206000209050919050565b600081546111e28161103e565b6111ec818661116d565b94506001821660008114611207576001811461121c5761124f565b60ff198316865281151582028601935061124f565b611225856111c0565b60005b8381101561124757815481890152600182019150602081019050611228565b838801955050505b50505092915050565b600061126482846111d5565b915081905092915050565b7f546865206e616d6520646f6573206e6f74206d61746368210000000000000000600082015250565b60006112a5601883610a1a565b91506112b08261126f565b602082019050919050565b600060208201905081810360008301526112d481611298565b9050919050565b7f4974656d206e756d62657220646f6573206e6f74206d61746368210000000000600082015250565b6000611311601b83610a1a565b915061131c826112db565b602082019050919050565b6000602082019050818103600083015261134081611304565b9050919050565b7f546865207072696365206f6620746865206974656d20646f6573206e6f74206d60008201527f6174636800000000000000000000000000000000000000000000000000000000602082015250565b60006113a3602483610a1a565b91506113ae82611347565b604082019050919050565b600060208201905081810360008301526113d281611396565b9050919050565b7f546865207175616e74697479206f6620746865206974656d20646f6573206e6f60008201527f74206d6174636821000000000000000000000000000000000000000000000000602082015250565b6000611435602883610a1a565b9150611440826113d9565b604082019050919050565b6000602082019050818103600083015261146481611428565b9050919050565b60006020601f8301049050919050565b600082821b905092915050565b6000600883026114b87fffffffffffffffffffffffffffffffffffffffffffffffffffffffffffffffff8261147b565b6114c2868361147b565b95508019841693508086168417925050509392505050565b6000819050919050565b60006114ff6114fa6114f584610999565b6114da565b610999565b9050919050565b6000819050919050565b611519836114e4565b61152d61152582611506565b848454611488565b825550505050565b600090565b611542611535565b61154d818484611510565b505050565b5b818110156115715761156660008261153a565b600181019050611553565b5050565b601f8211156115b657611587816111c0565b6115908461146b565b8101602085101561159f578190505b6115b36115ab8561146b565b830182611552565b50505b505050565b600082821c905092915050565b60006115d9600019846008026115bb565b1980831691505092915050565b60006115f283836115c8565b9150826002028217905092915050565b61160b82610a0f565b67ffffffffffffffff81111561162457611623610cd1565b5b61162e825461103e565b611639828285611575565b600060209050601f83116001811461166c576000841561165a578287015190505b61166485826115e6565b8655506116cc565b601f19841661167a866111c0565b60005b828110156116a25784890151825560018201915060208501945060208101905061167d565b868310156116bf57848901516116bb601f8916826115c8565b8355505b6001600288020188555050505b505050505050565b7f4e487b7100000000000000000000000000000000000000000000000000000000600052601160045260246000fd5b600061170e82610999565b91507fffffffffffffffffffffffffffffffffffffffffffffffffffffffffffffffff82036117405761173f6116d4565b5b60018201905091905056fe546865206974656d20697320636f727265637420616e6420726561647920746f20676f21a2646970667358221220e4f0649796b4a069abd407709229d0617a20424e44f251e150099176100666d864736f6c63430008110033",
  "immutableReferences": {},
  "source": "// SPDX-License-Identifier: MIT\r\npragma solidity ^0.8.9;\r\ncontract retail{\r\nstruct Item{\r\n    string name;\r\n    uint item_no;\r\n    uint price;\r\n    uint quantity;\r\n    address wallet;\r\n}\r\nstruct User{\r\n    string name;\r\n    uint item_no;\r\n    uint price;\r\n    uint quantity;\r\n}\r\n\r\n    uint public items;\r\n    address owner = msg.sender;\r\n    mapping(uint=>Item) public item;\r\n    mapping(address=>User[]) public  user;\r\n    \r\n    function record_item(string memory _name, uint itemnum, uint _price, uint _quant, address _add) public {\r\n      item[items] = Item({\r\n            name: _name,\r\n            item_no: itemnum,\r\n            price: _price,\r\n            quantity: _quant,\r\n            wallet: _add\r\n        });\r\n        User memory newuser = User(_name, itemnum, _price, _quant);\r\n       user[_add].push(newuser);\r\n        items++;\r\n    }\r\n    function check(uint256 orderno,string memory _name, uint itemnum, uint _price, uint _quant,address _add) external view returns(string memory){\r\n        require(owner==msg.sender, \"items maybe corrupted because sender is not same!\");\r\n        require(item[orderno].wallet==_add,\"The address of reciever is lost!\");\r\n        require(keccak256(abi.encodePacked((item[orderno].name))) == keccak256(abi.encodePacked((_name))),\"The name does not match!\");\r\n        require(item[orderno].item_no == itemnum,\"Item number does not match!\");\r\n        require(item[orderno].price == _price,\"The price of the item does not match\");\r\n        require(item[orderno].quantity == _quant,\"The quantity of the item does not match!\");\r\n        return \"The item is correct and ready to go!\";\r\n    }\r\n    \r\n    function get_orders(address _add) external view returns(User[] memory){\r\n       return user[_add];\r\n    } \r\n}\r\n",
  "sourcePath": "C:\\Users\\Solo Slayer\\Desktop\\retail-chain\\Retail-chain\\contracts\\retail-chain.sol",
  "compiler": {
    "name": "solc",
    "version": "0.8.17+commit.8df45f5f.Emscripten.clang"
  },
  "schemaVersion": "3.4.11",
  "updatedAt": "2022-12-04T16:42:54.510Z",
  "devdoc": {
    "kind": "dev",
    "methods": {},
    "version": 1
  },
  "userdoc": {
    "kind": "user",
    "methods": {},
    "version": 1
  }
}