{
  "_format": "hh-sol-artifact-1",
  "sourceName": "contracts/retailChain.sol",
  "contractName": "retail",
  "abi": [
    {
      "inputs": [
        {
          "internalType": "uint256",
          "name": "orderno",
          "type": "uint256"
        },
        {
          "internalType": "string",
          "name": "_name",
          "type": "string"
        },
        {
          "internalType": "uint256",
          "name": "itemnum",
          "type": "uint256"
        },
        {
          "internalType": "uint256",
          "name": "_price",
          "type": "uint256"
        },
        {
          "internalType": "uint256",
          "name": "_quant",
          "type": "uint256"
        },
        {
          "internalType": "address",
          "name": "_add",
          "type": "address"
        }
      ],
      "name": "check",
      "outputs": [
        {
          "internalType": "string",
          "name": "",
          "type": "string"
        }
      ],
      "stateMutability": "view",
      "type": "function"
    },
    {
      "inputs": [
        {
          "internalType": "address",
          "name": "_add",
          "type": "address"
        }
      ],
      "name": "get_orders",
      "outputs": [
        {
          "components": [
            {
              "internalType": "string",
              "name": "name",
              "type": "string"
            },
            {
              "internalType": "uint256",
              "name": "item_no",
              "type": "uint256"
            },
            {
              "internalType": "uint256",
              "name": "price",
              "type": "uint256"
            },
            {
              "internalType": "uint256",
              "name": "quantity",
              "type": "uint256"
            }
          ],
          "internalType": "struct retail.User[]",
          "name": "",
          "type": "tuple[]"
        }
      ],
      "stateMutability": "view",
      "type": "function"
    },
    {
      "inputs": [
        {
          "internalType": "uint256",
          "name": "",
          "type": "uint256"
        }
      ],
      "name": "item",
      "outputs": [
        {
          "internalType": "string",
          "name": "name",
          "type": "string"
        },
        {
          "internalType": "uint256",
          "name": "item_no",
          "type": "uint256"
        },
        {
          "internalType": "uint256",
          "name": "price",
          "type": "uint256"
        },
        {
          "internalType": "uint256",
          "name": "quantity",
          "type": "uint256"
        },
        {
          "internalType": "address",
          "name": "wallet",
          "type": "address"
        }
      ],
      "stateMutability": "view",
      "type": "function"
    },
    {
      "inputs": [],
      "name": "items",
      "outputs": [
        {
          "internalType": "uint256",
          "name": "",
          "type": "uint256"
        }
      ],
      "stateMutability": "view",
      "type": "function"
    },
    {
      "inputs": [
        {
          "internalType": "string",
          "name": "_name",
          "type": "string"
        },
        {
          "internalType": "uint256",
          "name": "itemnum",
          "type": "uint256"
        },
        {
          "internalType": "uint256",
          "name": "_price",
          "type": "uint256"
        },
        {
          "internalType": "uint256",
          "name": "_quant",
          "type": "uint256"
        },
        {
          "internalType": "address",
          "name": "_add",
          "type": "address"
        }
      ],
      "name": "record_item",
      "outputs": [],
      "stateMutability": "nonpayable",
      "type": "function"
    },
    {
      "inputs": [
        {
          "internalType": "address",
          "name": "",
          "type": "address"
        },
        {
          "internalType": "uint256",
          "name": "",
          "type": "uint256"
        }
      ],
      "name": "user",
      "outputs": [
        {
          "internalType": "string",
          "name": "name",
          "type": "string"
        },
        {
          "internalType": "uint256",
          "name": "item_no",
          "type": "uint256"
        },
        {
          "internalType": "uint256",
          "name": "price",
          "type": "uint256"
        },
        {
          "internalType": "uint256",
          "name": "quantity",
          "type": "uint256"
        }
      ],
      "stateMutability": "view",
      "type": "function"
    }
  ],
  "bytecode": "0x608060405233600160006101000a81548173ffffffffffffffffffffffffffffffffffffffff021916908373ffffffffffffffffffffffffffffffffffffffff16021790555034801561005157600080fd5b506115f4806100616000396000f3fe608060405234801561001057600080fd5b50600436106100625760003560e01c806314feaa9d14610067578063243847f21461009a5780635cb3f0f8146100ca578063898e6219146100fa578063bf38efce1461012e578063c06fad061461014a575b600080fd5b610081600480360381019061007c9190610a80565b610168565b6040516100919493929190610b68565b60405180910390f35b6100b460048036038101906100af9190610bb4565b61023d565b6040516100c19190610d5f565b60405180910390f35b6100e460048036038101906100df9190610eb6565b61038b565b6040516100f19190610f5f565b60405180910390f35b610114600480360381019061010f9190610f81565b610691565b604051610125959493929190610fbd565b60405180910390f35b61014860048036038101906101439190611017565b61076f565b005b61015261092f565b60405161015f91906110ae565b60405180910390f35b6003602052816000526040600020818154811061018457600080fd5b9060005260206000209060040201600091509150508060000180546101a8906110f8565b80601f01602080910402602001604051908101604052809291908181526020018280546101d4906110f8565b80156102215780601f106101f657610100808354040283529160200191610221565b820191906000526020600020905b81548152906001019060200180831161020457829003601f168201915b5050505050908060010154908060020154908060030154905084565b6060600360008373ffffffffffffffffffffffffffffffffffffffff1673ffffffffffffffffffffffffffffffffffffffff168152602001908152602001600020805480602002602001604051908101604052809291908181526020016000905b8282101561038057838290600052602060002090600402016040518060800160405290816000820180546102d1906110f8565b80601f01602080910402602001604051908101604052809291908181526020018280546102fd906110f8565b801561034a5780601f1061031f5761010080835404028352916020019161034a565b820191906000526020600020905b81548152906001019060200180831161032d57829003601f168201915b5050505050815260200160018201548152602001600282015481526020016003820154815250508152602001906001019061029e565b505050509050919050565b60603373ffffffffffffffffffffffffffffffffffffffff16600160009054906101000a900473ffffffffffffffffffffffffffffffffffffffff1673ffffffffffffffffffffffffffffffffffffffff161461041d576040517f08c379a00000000000000000000000000000000000000000000000000000000081526004016104149061119c565b60405180910390fd5b8173ffffffffffffffffffffffffffffffffffffffff166002600089815260200190815260200160002060040160009054906101000a900473ffffffffffffffffffffffffffffffffffffffff1673ffffffffffffffffffffffffffffffffffffffff16146104c1576040517f08c379a00000000000000000000000000000000000000000000000000000000081526004016104b890611208565b60405180910390fd5b856040516020016104d29190611264565b604051602081830303815290604052805190602001206002600089815260200190815260200160002060000160405160200161050e919061130f565b6040516020818303038152906040528051906020012014610564576040517f08c379a000000000000000000000000000000000000000000000000000000000815260040161055b90611372565b60405180910390fd5b846002600089815260200190815260200160002060010154146105bc576040517f08c379a00000000000000000000000000000000000000000000000000000000081526004016105b3906113de565b60405180910390fd5b83600260008981526020019081526020016000206002015414610614576040517f08c379a000000000000000000000000000000000000000000000000000000000815260040161060b90611470565b60405180910390fd5b8260026000898152602001908152602001600020600301541461066c576040517f08c379a000000000000000000000000000000000000000000000000000000000815260040161066390611502565b60405180910390fd5b60405180606001604052806024815260200161159b6024913990509695505050505050565b60026020528060005260406000206000915090508060000180546106b4906110f8565b80601f01602080910402602001604051908101604052809291908181526020018280546106e0906110f8565b801561072d5780601f106107025761010080835404028352916020019161072d565b820191906000526020600020905b81548152906001019060200180831161071057829003601f168201915b5050505050908060010154908060020154908060030154908060040160009054906101000a900473ffffffffffffffffffffffffffffffffffffffff16905085565b6040518060a001604052808681526020018581526020018481526020018381526020018273ffffffffffffffffffffffffffffffffffffffff16815250600260008054815260200190815260200160002060008201518160000190805190602001906107dc929190610935565b5060208201518160010155604082015181600201556060820151816003015560808201518160040160006101000a81548173ffffffffffffffffffffffffffffffffffffffff021916908373ffffffffffffffffffffffffffffffffffffffff16021790555090505060006040518060800160405280878152602001868152602001858152602001848152509050600360008373ffffffffffffffffffffffffffffffffffffffff1673ffffffffffffffffffffffffffffffffffffffff16815260200190815260200160002081908060018154018082558091505060019003906000526020600020906004020160009091909190915060008201518160000190805190602001906108ef929190610935565b50602082015181600101556040820151816002015560608201518160030155505060008081548092919061092290611551565b9190505550505050505050565b60005481565b828054610941906110f8565b90600052602060002090601f01602090048101928261096357600085556109aa565b82601f1061097c57805160ff19168380011785556109aa565b828001600101855582156109aa579182015b828111156109a957825182559160200191906001019061098e565b5b5090506109b791906109bb565b5090565b5b808211156109d45760008160009055506001016109bc565b5090565b6000604051905090565b600080fd5b600080fd5b600073ffffffffffffffffffffffffffffffffffffffff82169050919050565b6000610a17826109ec565b9050919050565b610a2781610a0c565b8114610a3257600080fd5b50565b600081359050610a4481610a1e565b92915050565b6000819050919050565b610a5d81610a4a565b8114610a6857600080fd5b50565b600081359050610a7a81610a54565b92915050565b60008060408385031215610a9757610a966109e2565b5b6000610aa585828601610a35565b9250506020610ab685828601610a6b565b9150509250929050565b600081519050919050565b600082825260208201905092915050565b60005b83811015610afa578082015181840152602081019050610adf565b83811115610b09576000848401525b50505050565b6000601f19601f8301169050919050565b6000610b2b82610ac0565b610b358185610acb565b9350610b45818560208601610adc565b610b4e81610b0f565b840191505092915050565b610b6281610a4a565b82525050565b60006080820190508181036000830152610b828187610b20565b9050610b916020830186610b59565b610b9e6040830185610b59565b610bab6060830184610b59565b95945050505050565b600060208284031215610bca57610bc96109e2565b5b6000610bd884828501610a35565b91505092915050565b600081519050919050565b600082825260208201905092915050565b6000819050602082019050919050565b600082825260208201905092915050565b6000610c2982610ac0565b610c338185610c0d565b9350610c43818560208601610adc565b610c4c81610b0f565b840191505092915050565b610c6081610a4a565b82525050565b60006080830160008301518482036000860152610c838282610c1e565b9150506020830151610c986020860182610c57565b506040830151610cab6040860182610c57565b506060830151610cbe6060860182610c57565b508091505092915050565b6000610cd58383610c66565b905092915050565b6000602082019050919050565b6000610cf582610be1565b610cff8185610bec565b935083602082028501610d1185610bfd565b8060005b85811015610d4d5784840389528151610d2e8582610cc9565b9450610d3983610cdd565b925060208a01995050600181019050610d15565b50829750879550505050505092915050565b60006020820190508181036000830152610d798184610cea565b905092915050565b600080fd5b600080fd5b7f4e487b7100000000000000000000000000000000000000000000000000000000600052604160045260246000fd5b610dc382610b0f565b810181811067ffffffffffffffff82111715610de257610de1610d8b565b5b80604052505050565b6000610df56109d8565b9050610e018282610dba565b919050565b600067ffffffffffffffff821115610e2157610e20610d8b565b5b610e2a82610b0f565b9050602081019050919050565b82818337600083830152505050565b6000610e59610e5484610e06565b610deb565b905082815260208101848484011115610e7557610e74610d86565b5b610e80848285610e37565b509392505050565b600082601f830112610e9d57610e9c610d81565b5b8135610ead848260208601610e46565b91505092915050565b60008060008060008060c08789031215610ed357610ed26109e2565b5b6000610ee189828a01610a6b565b965050602087013567ffffffffffffffff811115610f0257610f016109e7565b5b610f0e89828a01610e88565b9550506040610f1f89828a01610a6b565b9450506060610f3089828a01610a6b565b9350506080610f4189828a01610a6b565b92505060a0610f5289828a01610a35565b9150509295509295509295565b60006020820190508181036000830152610f798184610b20565b905092915050565b600060208284031215610f9757610f966109e2565b5b6000610fa584828501610a6b565b91505092915050565b610fb781610a0c565b82525050565b600060a0820190508181036000830152610fd78188610b20565b9050610fe66020830187610b59565b610ff36040830186610b59565b6110006060830185610b59565b61100d6080830184610fae565b9695505050505050565b600080600080600060a08688031215611033576110326109e2565b5b600086013567ffffffffffffffff811115611051576110506109e7565b5b61105d88828901610e88565b955050602061106e88828901610a6b565b945050604061107f88828901610a6b565b935050606061109088828901610a6b565b92505060806110a188828901610a35565b9150509295509295909350565b60006020820190506110c36000830184610b59565b92915050565b7f4e487b7100000000000000000000000000000000000000000000000000000000600052602260045260246000fd5b6000600282049050600182168061111057607f821691505b60208210811415611124576111236110c9565b5b50919050565b7f6974656d73206d6179626520636f72727570746564206265636175736520736560008201527f6e646572206973206e6f742073616d6521000000000000000000000000000000602082015250565b6000611186603183610acb565b91506111918261112a565b604082019050919050565b600060208201905081810360008301526111b581611179565b9050919050565b7f5468652061646472657373206f66207265636965766572206973206c6f737421600082015250565b60006111f2602083610acb565b91506111fd826111bc565b602082019050919050565b60006020820190508181036000830152611221816111e5565b9050919050565b600081905092915050565b600061123e82610ac0565b6112488185611228565b9350611258818560208601610adc565b80840191505092915050565b60006112708284611233565b915081905092915050565b60008190508160005260206000209050919050565b6000815461129d816110f8565b6112a78186611228565b945060018216600081146112c257600181146112d357611306565b60ff19831686528186019350611306565b6112dc8561127b565b60005b838110156112fe578154818901526001820191506020810190506112df565b838801955050505b50505092915050565b600061131b8284611290565b915081905092915050565b7f546865206e616d6520646f6573206e6f74206d61746368210000000000000000600082015250565b600061135c601883610acb565b915061136782611326565b602082019050919050565b6000602082019050818103600083015261138b8161134f565b9050919050565b7f4974656d206e756d62657220646f6573206e6f74206d61746368210000000000600082015250565b60006113c8601b83610acb565b91506113d382611392565b602082019050919050565b600060208201905081810360008301526113f7816113bb565b9050919050565b7f546865207072696365206f6620746865206974656d20646f6573206e6f74206d60008201527f6174636800000000000000000000000000000000000000000000000000000000602082015250565b600061145a602483610acb565b9150611465826113fe565b604082019050919050565b600060208201905081810360008301526114898161144d565b9050919050565b7f546865207175616e74697479206f6620746865206974656d20646f6573206e6f60008201527f74206d6174636821000000000000000000000000000000000000000000000000602082015250565b60006114ec602883610acb565b91506114f782611490565b604082019050919050565b6000602082019050818103600083015261151b816114df565b9050919050565b7f4e487b7100000000000000000000000000000000000000000000000000000000600052601160045260246000fd5b600061155c82610a4a565b91507fffffffffffffffffffffffffffffffffffffffffffffffffffffffffffffffff82141561158f5761158e611522565b5b60018201905091905056fe546865206974656d20697320636f727265637420616e6420726561647920746f20676f21a2646970667358221220dbab79887c1a219484c28a41722dd8963a8753e571aadcf35f8af799225af1d764736f6c63430008090033",
  "linkReferences": {},
  "deployedLinkReferences": {}
}